{
  "_format": "hh-sol-artifact-1",
  "contractName": "Words",
  "sourceName": "contracts/Words.sol",
  "abi": [
    {
      "inputs": [],
      "stateMutability": "nonpayable",
      "type": "constructor"
    },
    {
      "anonymous": false,
      "inputs": [
        {
          "indexed": true,
          "internalType": "address",
          "name": "owner",
          "type": "address"
        },
        {
          "indexed": true,
          "internalType": "address",
          "name": "approved",
          "type": "address"
        },
        {
          "indexed": true,
          "internalType": "uint256",
          "name": "tokenId",
          "type": "uint256"
        }
      ],
      "name": "Approval",
      "type": "event"
    },
    {
      "anonymous": false,
      "inputs": [
        {
          "indexed": true,
          "internalType": "address",
          "name": "owner",
          "type": "address"
        },
        {
          "indexed": true,
          "internalType": "address",
          "name": "operator",
          "type": "address"
        },
        {
          "indexed": false,
          "internalType": "bool",
          "name": "approved",
          "type": "bool"
        }
      ],
      "name": "ApprovalForAll",
      "type": "event"
    },
    {
      "anonymous": false,
      "inputs": [
        {
          "indexed": false,
          "internalType": "address",
          "name": "sender",
          "type": "address"
        },
        {
          "indexed": false,
          "internalType": "uint256",
          "name": "tokenId",
          "type": "uint256"
        }
      ],
      "name": "NewEpicNFTMinted",
      "type": "event"
    },
    {
      "anonymous": false,
      "inputs": [
        {
          "indexed": true,
          "internalType": "address",
          "name": "from",
          "type": "address"
        },
        {
          "indexed": true,
          "internalType": "address",
          "name": "to",
          "type": "address"
        },
        {
          "indexed": true,
          "internalType": "uint256",
          "name": "tokenId",
          "type": "uint256"
        }
      ],
      "name": "Transfer",
      "type": "event"
    },
    {
      "inputs": [
        {
          "internalType": "address",
          "name": "to",
          "type": "address"
        },
        {
          "internalType": "uint256",
          "name": "tokenId",
          "type": "uint256"
        }
      ],
      "name": "approve",
      "outputs": [],
      "stateMutability": "nonpayable",
      "type": "function"
    },
    {
      "inputs": [
        {
          "internalType": "address",
          "name": "owner",
          "type": "address"
        }
      ],
      "name": "balanceOf",
      "outputs": [
        {
          "internalType": "uint256",
          "name": "",
          "type": "uint256"
        }
      ],
      "stateMutability": "view",
      "type": "function"
    },
    {
      "inputs": [
        {
          "internalType": "uint256",
          "name": "tokenId",
          "type": "uint256"
        }
      ],
      "name": "getApproved",
      "outputs": [
        {
          "internalType": "address",
          "name": "",
          "type": "address"
        }
      ],
      "stateMutability": "view",
      "type": "function"
    },
    {
      "inputs": [
        {
          "internalType": "address",
          "name": "owner",
          "type": "address"
        },
        {
          "internalType": "address",
          "name": "operator",
          "type": "address"
        }
      ],
      "name": "isApprovedForAll",
      "outputs": [
        {
          "internalType": "bool",
          "name": "",
          "type": "bool"
        }
      ],
      "stateMutability": "view",
      "type": "function"
    },
    {
      "inputs": [],
      "name": "mint",
      "outputs": [],
      "stateMutability": "nonpayable",
      "type": "function"
    },
    {
      "inputs": [],
      "name": "name",
      "outputs": [
        {
          "internalType": "string",
          "name": "",
          "type": "string"
        }
      ],
      "stateMutability": "view",
      "type": "function"
    },
    {
      "inputs": [
        {
          "internalType": "uint256",
          "name": "tokenId",
          "type": "uint256"
        }
      ],
      "name": "ownerOf",
      "outputs": [
        {
          "internalType": "address",
          "name": "",
          "type": "address"
        }
      ],
      "stateMutability": "view",
      "type": "function"
    },
    {
      "inputs": [
        {
          "internalType": "uint256",
          "name": "tokenId",
          "type": "uint256"
        }
      ],
      "name": "pickRandomColor",
      "outputs": [
        {
          "internalType": "string",
          "name": "",
          "type": "string"
        }
      ],
      "stateMutability": "view",
      "type": "function"
    },
    {
      "inputs": [
        {
          "internalType": "uint256",
          "name": "tokenId",
          "type": "uint256"
        }
      ],
      "name": "pickRandomFirstWord",
      "outputs": [
        {
          "internalType": "string",
          "name": "",
          "type": "string"
        }
      ],
      "stateMutability": "view",
      "type": "function"
    },
    {
      "inputs": [
        {
          "internalType": "uint256",
          "name": "tokenId",
          "type": "uint256"
        }
      ],
      "name": "pickRandomSecondWord",
      "outputs": [
        {
          "internalType": "string",
          "name": "",
          "type": "string"
        }
      ],
      "stateMutability": "view",
      "type": "function"
    },
    {
      "inputs": [
        {
          "internalType": "uint256",
          "name": "tokenId",
          "type": "uint256"
        }
      ],
      "name": "pickRandomThirdWord",
      "outputs": [
        {
          "internalType": "string",
          "name": "",
          "type": "string"
        }
      ],
      "stateMutability": "view",
      "type": "function"
    },
    {
      "inputs": [
        {
          "internalType": "address",
          "name": "from",
          "type": "address"
        },
        {
          "internalType": "address",
          "name": "to",
          "type": "address"
        },
        {
          "internalType": "uint256",
          "name": "tokenId",
          "type": "uint256"
        }
      ],
      "name": "safeTransferFrom",
      "outputs": [],
      "stateMutability": "nonpayable",
      "type": "function"
    },
    {
      "inputs": [
        {
          "internalType": "address",
          "name": "from",
          "type": "address"
        },
        {
          "internalType": "address",
          "name": "to",
          "type": "address"
        },
        {
          "internalType": "uint256",
          "name": "tokenId",
          "type": "uint256"
        },
        {
          "internalType": "bytes",
          "name": "_data",
          "type": "bytes"
        }
      ],
      "name": "safeTransferFrom",
      "outputs": [],
      "stateMutability": "nonpayable",
      "type": "function"
    },
    {
      "inputs": [
        {
          "internalType": "address",
          "name": "operator",
          "type": "address"
        },
        {
          "internalType": "bool",
          "name": "approved",
          "type": "bool"
        }
      ],
      "name": "setApprovalForAll",
      "outputs": [],
      "stateMutability": "nonpayable",
      "type": "function"
    },
    {
      "inputs": [
        {
          "internalType": "bytes4",
          "name": "interfaceId",
          "type": "bytes4"
        }
      ],
      "name": "supportsInterface",
      "outputs": [
        {
          "internalType": "bool",
          "name": "",
          "type": "bool"
        }
      ],
      "stateMutability": "view",
      "type": "function"
    },
    {
      "inputs": [],
      "name": "symbol",
      "outputs": [
        {
          "internalType": "string",
          "name": "",
          "type": "string"
        }
      ],
      "stateMutability": "view",
      "type": "function"
    },
    {
      "inputs": [
        {
          "internalType": "uint256",
          "name": "index",
          "type": "uint256"
        }
      ],
      "name": "tokenByIndex",
      "outputs": [
        {
          "internalType": "uint256",
          "name": "",
          "type": "uint256"
        }
      ],
      "stateMutability": "view",
      "type": "function"
    },
    {
      "inputs": [
        {
          "internalType": "address",
          "name": "owner",
          "type": "address"
        },
        {
          "internalType": "uint256",
          "name": "index",
          "type": "uint256"
        }
      ],
      "name": "tokenOfOwnerByIndex",
      "outputs": [
        {
          "internalType": "uint256",
          "name": "",
          "type": "uint256"
        }
      ],
      "stateMutability": "view",
      "type": "function"
    },
    {
      "inputs": [
        {
          "internalType": "uint256",
          "name": "tokenId",
          "type": "uint256"
        }
      ],
      "name": "tokenURI",
      "outputs": [
        {
          "internalType": "string",
          "name": "",
          "type": "string"
        }
      ],
      "stateMutability": "view",
      "type": "function"
    },
    {
      "inputs": [],
      "name": "totalSupply",
      "outputs": [
        {
          "internalType": "uint256",
          "name": "",
          "type": "uint256"
        }
      ],
      "stateMutability": "view",
      "type": "function"
    },
    {
      "inputs": [
        {
          "internalType": "address",
          "name": "from",
          "type": "address"
        },
        {
          "internalType": "address",
          "name": "to",
          "type": "address"
        },
        {
          "internalType": "uint256",
          "name": "tokenId",
          "type": "uint256"
        }
      ],
      "name": "transferFrom",
      "outputs": [],
      "stateMutability": "nonpayable",
      "type": "function"
    }
  ],
  "bytecode": "0x608060405260405180610100016040528060d3815260200162004ed060d39139600c9080519060200190620000369291906200082c565b5060405180608001604052806056815260200162004fa360569139600d9080519060200190620000689291906200082c565b506040518060c001604052806040518060400160405280600581526020017f50697a7a6100000000000000000000000000000000000000000000000000000081525081526020016040518060400160405280600381526020017f506965000000000000000000000000000000000000000000000000000000000081525081526020016040518060400160405280600481526020017f43616b650000000000000000000000000000000000000000000000000000000081525081526020016040518060400160405280600581526020017f427265616400000000000000000000000000000000000000000000000000000081525081526020016040518060400160405280600581526020017f43616e647900000000000000000000000000000000000000000000000000000081525081526020016040518060400160405280600581526020017f4a75696365000000000000000000000000000000000000000000000000000000815250815250600e906006620001e6929190620008bd565b506040518060c001604052806040518060400160405280600581526020017f4170706c6500000000000000000000000000000000000000000000000000000081525081526020016040518060400160405280600581526020017f4d616e676f00000000000000000000000000000000000000000000000000000081525081526020016040518060400160405280600681526020017f4f72616e6765000000000000000000000000000000000000000000000000000081525081526020016040518060400160405280600581526020017f506561636800000000000000000000000000000000000000000000000000000081525081526020016040518060400160405280600981526020017f50696e656170706c65000000000000000000000000000000000000000000000081525081526020016040518060400160405280600581526020017f4772617065000000000000000000000000000000000000000000000000000000815250815250600f90600662000364929190620008bd565b506040518060c001604052806040518060400160405280600581526020017f537765657400000000000000000000000000000000000000000000000000000081525081526020016040518060400160405280600481526020017f536f75720000000000000000000000000000000000000000000000000000000081525081526020016040518060400160405280600681526020017f426974746572000000000000000000000000000000000000000000000000000081525081526020016040518060400160405280600681526020017f53616c746564000000000000000000000000000000000000000000000000000081525081526020016040518060400160405280600681526020017f4368696c6c79000000000000000000000000000000000000000000000000000081525081526020016040518060400160405280600581526020017f426c616e640000000000000000000000000000000000000000000000000000008152508152506010906006620004e2929190620008bd565b506040518060c001604052806040518060400160405280600381526020017f726564000000000000000000000000000000000000000000000000000000000081525081526020016040518060400160405280600781526020017f233038433241380000000000000000000000000000000000000000000000000081525081526020016040518060400160405280600581526020017f626c61636b00000000000000000000000000000000000000000000000000000081525081526020016040518060400160405280600681526020017f79656c6c6f77000000000000000000000000000000000000000000000000000081525081526020016040518060400160405280600481526020017f626c75650000000000000000000000000000000000000000000000000000000081525081526020016040518060400160405280600581526020017f677265656e000000000000000000000000000000000000000000000000000000815250815250601190600662000660929190620008bd565b503480156200066e57600080fd5b506040518060400160405280600981526020017f5371756172654e465400000000000000000000000000000000000000000000008152506040518060400160405280600681526020017f53515541524500000000000000000000000000000000000000000000000000008152508160009080519060200190620006f39291906200082c565b5080600190805190602001906200070c9291906200082c565b5050506200075a6040518060400160405280601e81526020017f54686973206973206d79204e465420636f6e74726163742e20576f61682100008152506200076060201b620012021760201c565b62000ade565b6200080081604051602401620007779190620009f2565b6040516020818303038152906040527f41304fac000000000000000000000000000000000000000000000000000000007bffffffffffffffffffffffffffffffffffffffffffffffffffffffff19166020820180517bffffffffffffffffffffffffffffffffffffffffffffffffffffffff83818316178352505050506200080360201b60201c565b50565b60008151905060006a636f6e736f6c652e6c6f679050602083016000808483855afa5050505050565b8280546200083a9062000a68565b90600052602060002090601f0160209004810192826200085e5760008555620008aa565b82601f106200087957805160ff1916838001178555620008aa565b82800160010185558215620008aa579182015b82811115620008a95782518255916020019190600101906200088c565b5b509050620008b9919062000924565b5090565b82805482825590600052602060002090810192821562000911579160200282015b8281111562000910578251829080519060200190620008ff9291906200082c565b5091602001919060010190620008de565b5b50905062000920919062000943565b5090565b5b808211156200093f57600081600090555060010162000925565b5090565b5b808211156200096757600081816200095d91906200096b565b5060010162000944565b5090565b508054620009799062000a68565b6000825580601f106200098d5750620009ae565b601f016020900490600052602060002090810190620009ad919062000924565b5b50565b6000620009be8262000a16565b620009ca818562000a21565b9350620009dc81856020860162000a32565b620009e78162000acd565b840191505092915050565b6000602082019050818103600083015262000a0e8184620009b1565b905092915050565b600081519050919050565b600082825260208201905092915050565b60005b8381101562000a5257808201518184015260208101905062000a35565b8381111562000a62576000848401525b50505050565b6000600282049050600182168062000a8157607f821691505b6020821081141562000a985762000a9762000a9e565b5b50919050565b7f4e487b7100000000000000000000000000000000000000000000000000000000600052602260045260246000fd5b6000601f19601f8301169050919050565b6143e28062000aee6000396000f3fe608060405234801561001057600080fd5b50600436106101375760003560e01c80634f6ccce7116100b8578063a22cb4651161007c578063a22cb46514610374578063b187301f14610390578063b88d4fde146103c0578063c575757a146103dc578063c87b56dd1461040c578063e985e9c51461043c57610137565b80634f6ccce714610296578063514dc8c6146102c65780636352211e146102f657806370a082311461032657806395d89b411461035657610137565b806318160ddd116100ff57806318160ddd146101e057806323b872dd146101fe5780632de38d681461021a5780632f745c591461024a57806342842e0e1461027a57610137565b806301ffc9a71461013c57806306fdde031461016c578063081812fc1461018a578063095ea7b3146101ba5780631249c58b146101d6575b600080fd5b61015660048036038101906101519190612d44565b61046c565b60405161016391906134f3565b60405180910390f35b61017461047e565b604051610181919061350e565b60405180910390f35b6101a4600480360381019061019f9190612d96565b610510565b6040516101b19190613463565b60405180910390f35b6101d460048036038101906101cf9190612d08565b610595565b005b6101de6106ad565b005b6101e86108a7565b6040516101f591906137ae565b60405180910390f35b61021860048036038101906102139190612c02565b6108b4565b005b610234600480360381019061022f9190612d96565b610914565b604051610241919061350e565b60405180910390f35b610264600480360381019061025f9190612d08565b610a32565b60405161027191906137ae565b60405180910390f35b610294600480360381019061028f9190612c02565b610ad7565b005b6102b060048036038101906102ab9190612d96565b610af7565b6040516102bd91906137ae565b60405180910390f35b6102e060048036038101906102db9190612d96565b610b8e565b6040516102ed919061350e565b60405180910390f35b610310600480360381019061030b9190612d96565b610cac565b60405161031d9190613463565b60405180910390f35b610340600480360381019061033b9190612b9d565b610d5e565b60405161034d91906137ae565b60405180910390f35b61035e610e16565b60405161036b919061350e565b60405180910390f35b61038e60048036038101906103899190612ccc565b610ea8565b005b6103aa60048036038101906103a59190612d96565b610ebe565b6040516103b7919061350e565b60405180910390f35b6103da60048036038101906103d59190612c51565b610fdc565b005b6103f660048036038101906103f19190612d96565b61103e565b604051610403919061350e565b60405180910390f35b61042660048036038101906104219190612d96565b61115c565b604051610433919061350e565b60405180910390f35b61045660048036038101906104519190612bc6565b61116e565b60405161046391906134f3565b60405180910390f35b60006104778261129b565b9050919050565b60606000805461048d90613a42565b80601f01602080910402602001604051908101604052809291908181526020018280546104b990613a42565b80156105065780601f106104db57610100808354040283529160200191610506565b820191906000526020600020905b8154815290600101906020018083116104e957829003601f168201915b5050505050905090565b600061051b82611315565b61055a576040517f08c379a00000000000000000000000000000000000000000000000000000000081526004016105519061370e565b60405180910390fd5b6004600083815260200190815260200160002060009054906101000a900473ffffffffffffffffffffffffffffffffffffffff169050919050565b60006105a082610cac565b90508073ffffffffffffffffffffffffffffffffffffffff168373ffffffffffffffffffffffffffffffffffffffff161415610611576040517f08c379a00000000000000000000000000000000000000000000000000000000081526004016106089061374e565b60405180910390fd5b8073ffffffffffffffffffffffffffffffffffffffff16610630611381565b73ffffffffffffffffffffffffffffffffffffffff16148061065f575061065e81610659611381565b61116e565b5b61069e576040517f08c379a00000000000000000000000000000000000000000000000000000000081526004016106959061364e565b60405180910390fd5b6106a88383611389565b505050565b60006106b9600b611442565b905060006106c682610914565b905060006106d383610ebe565b905060006106e08461103e565b905060008383836040516020016106f9939291906132fa565b6040516020818303038152906040529050600061071586610b8e565b90506000600c82600d85604051602001610732949392919061332b565b604051602081830303815290604052905060006107778461075284611450565b6040516020016107639291906133b8565b604051602081830303815290604052611450565b905060008160405160200161078c919061341f565b60405160208183030381529060405290506107db6040518060400160405280601581526020017f0a2d2d2d2d2d2d2d2d2d2d2d2d2d2d2d2d2d2d2d2d0000000000000000000000815250611202565b6107e481611202565b6108226040518060400160405280601581526020017f2d2d2d2d2d2d2d2d2d2d2d2d2d2d2d2d2d2d2d2d0a0000000000000000000000815250611202565b61082c338a6115da565b61083689826115f8565b610840600b61166c565b610863604051806060016040528060258152602001614348602591398a33611682565b7febb98688741ffa4c7589bf325de30cf7becb63de567842e1ccdb6cb949fdc82c338a6040516108949291906134ca565b60405180910390a1505050505050505050565b6000600880549050905090565b6108c56108bf611381565b82611721565b610904576040517f08c379a00000000000000000000000000000000000000000000000000000000081526004016108fb9061376e565b60405180910390fd5b61090f8383836117ff565b505050565b6060600061094861092484611a66565b60405160200161093491906133fd565b604051602081830303815290604052611c13565b9050600e805490508161095b9190613aee565b9050600e8181548110610997577f4e487b7100000000000000000000000000000000000000000000000000000000600052603260045260246000fd5b9060005260206000200180546109ac90613a42565b80601f01602080910402602001604051908101604052809291908181526020018280546109d890613a42565b8015610a255780601f106109fa57610100808354040283529160200191610a25565b820191906000526020600020905b815481529060010190602001808311610a0857829003601f168201915b5050505050915050919050565b6000610a3d83610d5e565b8210610a7e576040517f08c379a0000000000000000000000000000000000000000000000000000000008152600401610a759061356e565b60405180910390fd5b600660008473ffffffffffffffffffffffffffffffffffffffff1673ffffffffffffffffffffffffffffffffffffffff168152602001908152602001600020600083815260200190815260200160002054905092915050565b610af283838360405180602001604052806000815250610fdc565b505050565b6000610b016108a7565b8210610b42576040517f08c379a0000000000000000000000000000000000000000000000000000000008152600401610b399061378e565b60405180910390fd5b60088281548110610b7c577f4e487b7100000000000000000000000000000000000000000000000000000000600052603260045260246000fd5b90600052602060002001549050919050565b60606000610bc2610b9e84611a66565b604051602001610bae9190613441565b604051602081830303815290604052611c13565b905060118054905081610bd59190613aee565b905060118181548110610c11577f4e487b7100000000000000000000000000000000000000000000000000000000600052603260045260246000fd5b906000526020600020018054610c2690613a42565b80601f0160208091040260200160405190810160405280929190818152602001828054610c5290613a42565b8015610c9f5780601f10610c7457610100808354040283529160200191610c9f565b820191906000526020600020905b815481529060010190602001808311610c8257829003601f168201915b5050505050915050919050565b6000806002600084815260200190815260200160002060009054906101000a900473ffffffffffffffffffffffffffffffffffffffff169050600073ffffffffffffffffffffffffffffffffffffffff168173ffffffffffffffffffffffffffffffffffffffff161415610d55576040517f08c379a0000000000000000000000000000000000000000000000000000000008152600401610d4c9061368e565b60405180910390fd5b80915050919050565b60008073ffffffffffffffffffffffffffffffffffffffff168273ffffffffffffffffffffffffffffffffffffffff161415610dcf576040517f08c379a0000000000000000000000000000000000000000000000000000000008152600401610dc69061366e565b60405180910390fd5b600360008373ffffffffffffffffffffffffffffffffffffffff1673ffffffffffffffffffffffffffffffffffffffff168152602001908152602001600020549050919050565b606060018054610e2590613a42565b80601f0160208091040260200160405190810160405280929190818152602001828054610e5190613a42565b8015610e9e5780601f10610e7357610100808354040283529160200191610e9e565b820191906000526020600020905b815481529060010190602001808311610e8157829003601f168201915b5050505050905090565b610eba610eb3611381565b8383611c46565b5050565b60606000610ef2610ece84611a66565b604051602001610ede9190613396565b604051602081830303815290604052611c13565b9050600f8054905081610f059190613aee565b9050600f8181548110610f41577f4e487b7100000000000000000000000000000000000000000000000000000000600052603260045260246000fd5b906000526020600020018054610f5690613a42565b80601f0160208091040260200160405190810160405280929190818152602001828054610f8290613a42565b8015610fcf5780601f10610fa457610100808354040283529160200191610fcf565b820191906000526020600020905b815481529060010190602001808311610fb257829003601f168201915b5050505050915050919050565b610fed610fe7611381565b83611721565b61102c576040517f08c379a00000000000000000000000000000000000000000000000000000000081526004016110239061376e565b60405180910390fd5b61103884848484611db3565b50505050565b6060600061107261104e84611a66565b60405160200161105e9190613374565b604051602081830303815290604052611c13565b9050601080549050816110859190613aee565b9050601081815481106110c1577f4e487b7100000000000000000000000000000000000000000000000000000000600052603260045260246000fd5b9060005260206000200180546110d690613a42565b80601f016020809104026020016040519081016040528092919081815260200182805461110290613a42565b801561114f5780601f106111245761010080835404028352916020019161114f565b820191906000526020600020905b81548152906001019060200180831161113257829003601f168201915b5050505050915050919050565b606061116782611e0f565b9050919050565b6000600560008473ffffffffffffffffffffffffffffffffffffffff1673ffffffffffffffffffffffffffffffffffffffff16815260200190815260200160002060008373ffffffffffffffffffffffffffffffffffffffff1673ffffffffffffffffffffffffffffffffffffffff16815260200190815260200160002060009054906101000a900460ff16905092915050565b61129881604051602401611216919061350e565b6040516020818303038152906040527f41304fac000000000000000000000000000000000000000000000000000000007bffffffffffffffffffffffffffffffffffffffffffffffffffffffff19166020820180517bffffffffffffffffffffffffffffffffffffffffffffffffffffffff8381831617835250505050611f61565b50565b60007f780e9d63000000000000000000000000000000000000000000000000000000007bffffffffffffffffffffffffffffffffffffffffffffffffffffffff1916827bffffffffffffffffffffffffffffffffffffffffffffffffffffffff1916148061130e575061130d82611f8a565b5b9050919050565b60008073ffffffffffffffffffffffffffffffffffffffff166002600084815260200190815260200160002060009054906101000a900473ffffffffffffffffffffffffffffffffffffffff1673ffffffffffffffffffffffffffffffffffffffff1614159050919050565b600033905090565b816004600083815260200190815260200160002060006101000a81548173ffffffffffffffffffffffffffffffffffffffff021916908373ffffffffffffffffffffffffffffffffffffffff160217905550808273ffffffffffffffffffffffffffffffffffffffff166113fc83610cac565b73ffffffffffffffffffffffffffffffffffffffff167f8c5be1e5ebec7d5bd14f71427d1e84f3dd0314c0f7b2291e5b200ac8c7c3b92560405160405180910390a45050565b600081600001549050919050565b6060600082511415611473576040518060200160405280600081525090506115d5565b600060405180606001604052806040815260200161436d60409139905060006003600285516114a29190613877565b6114ac91906138cd565b60046114b891906138fe565b67ffffffffffffffff8111156114f7577f4e487b7100000000000000000000000000000000000000000000000000000000600052604160045260246000fd5b6040519080825280601f01601f1916602001820160405280156115295781602001600182028036833780820191505090505b509050600182016020820185865187015b80821015611595576003820191508151603f8160121c168501518453600184019350603f81600c1c168501518453600184019350603f8160061c168501518453600184019350603f811685015184536001840193505061153a565b50506003865106600181146115b157600281146115c4576115cc565b603d6001830353603d60028303536115cc565b603d60018303535b50505080925050505b919050565b6115f482826040518060200160405280600081525061206c565b5050565b61160182611315565b611640576040517f08c379a0000000000000000000000000000000000000000000000000000000008152600401611637906136ae565b60405180910390fd5b80600a60008481526020019081526020016000209080519060200190611667929190612a29565b505050565b6001816000016000828254019250508190555050565b61171c83838360405160240161169a93929190613530565b6040516020818303038152906040527fe3849f79000000000000000000000000000000000000000000000000000000007bffffffffffffffffffffffffffffffffffffffffffffffffffffffff19166020820180517bffffffffffffffffffffffffffffffffffffffffffffffffffffffff8381831617835250505050611f61565b505050565b600061172c82611315565b61176b576040517f08c379a00000000000000000000000000000000000000000000000000000000081526004016117629061362e565b60405180910390fd5b600061177683610cac565b90508073ffffffffffffffffffffffffffffffffffffffff168473ffffffffffffffffffffffffffffffffffffffff1614806117e557508373ffffffffffffffffffffffffffffffffffffffff166117cd84610510565b73ffffffffffffffffffffffffffffffffffffffff16145b806117f657506117f5818561116e565b5b91505092915050565b8273ffffffffffffffffffffffffffffffffffffffff1661181f82610cac565b73ffffffffffffffffffffffffffffffffffffffff1614611875576040517f08c379a000000000000000000000000000000000000000000000000000000000815260040161186c906135ae565b60405180910390fd5b600073ffffffffffffffffffffffffffffffffffffffff168273ffffffffffffffffffffffffffffffffffffffff1614156118e5576040517f08c379a00000000000000000000000000000000000000000000000000000000081526004016118dc906135ee565b60405180910390fd5b6118f08383836120c7565b6118fb600082611389565b6001600360008573ffffffffffffffffffffffffffffffffffffffff1673ffffffffffffffffffffffffffffffffffffffff168152602001908152602001600020600082825461194b9190613958565b925050819055506001600360008473ffffffffffffffffffffffffffffffffffffffff1673ffffffffffffffffffffffffffffffffffffffff16815260200190815260200160002060008282546119a29190613877565b92505081905550816002600083815260200190815260200160002060006101000a81548173ffffffffffffffffffffffffffffffffffffffff021916908373ffffffffffffffffffffffffffffffffffffffff160217905550808273ffffffffffffffffffffffffffffffffffffffff168473ffffffffffffffffffffffffffffffffffffffff167fddf252ad1be2c89b69c2b068fc378daa952ba7f163c4a11628f55a4df523b3ef60405160405180910390a4611a618383836120d7565b505050565b60606000821415611aae576040518060400160405280600181526020017f30000000000000000000000000000000000000000000000000000000000000008152509050611c0e565b600082905060005b60008214611ae0578080611ac990613aa5565b915050600a82611ad991906138cd565b9150611ab6565b60008167ffffffffffffffff811115611b22577f4e487b7100000000000000000000000000000000000000000000000000000000600052604160045260246000fd5b6040519080825280601f01601f191660200182016040528015611b545781602001600182028036833780820191505090505b5090505b60008514611c0757600182611b6d9190613958565b9150600a85611b7c9190613aee565b6030611b889190613877565b60f81b818381518110611bc4577f4e487b7100000000000000000000000000000000000000000000000000000000600052603260045260246000fd5b60200101907effffffffffffffffffffffffffffffffffffffffffffffffffffffffffffff1916908160001a905350600a85611c0091906138cd565b9450611b58565b8093505050505b919050565b600081604051602001611c2691906132bf565b6040516020818303038152906040528051906020012060001c9050919050565b8173ffffffffffffffffffffffffffffffffffffffff168373ffffffffffffffffffffffffffffffffffffffff161415611cb5576040517f08c379a0000000000000000000000000000000000000000000000000000000008152600401611cac9061360e565b60405180910390fd5b80600560008573ffffffffffffffffffffffffffffffffffffffff1673ffffffffffffffffffffffffffffffffffffffff16815260200190815260200160002060008473ffffffffffffffffffffffffffffffffffffffff1673ffffffffffffffffffffffffffffffffffffffff16815260200190815260200160002060006101000a81548160ff0219169083151502179055508173ffffffffffffffffffffffffffffffffffffffff168373ffffffffffffffffffffffffffffffffffffffff167f17307eab39ab6107e8899845ad3d59bd9653f200f220920489ca2b5937696c3183604051611da691906134f3565b60405180910390a3505050565b611dbe8484846117ff565b611dca848484846120dc565b611e09576040517f08c379a0000000000000000000000000000000000000000000000000000000008152600401611e009061358e565b60405180910390fd5b50505050565b6060611e1a82611315565b611e59576040517f08c379a0000000000000000000000000000000000000000000000000000000008152600401611e50906136ee565b60405180910390fd5b6000600a60008481526020019081526020016000208054611e7990613a42565b80601f0160208091040260200160405190810160405280929190818152602001828054611ea590613a42565b8015611ef25780601f10611ec757610100808354040283529160200191611ef2565b820191906000526020600020905b815481529060010190602001808311611ed557829003601f168201915b505050505090506000611f03612273565b9050600081511415611f19578192505050611f5c565b600082511115611f4e578082604051602001611f369291906132d6565b60405160208183030381529060405292505050611f5c565b611f578461228a565b925050505b919050565b60008151905060006a636f6e736f6c652e6c6f679050602083016000808483855afa5050505050565b60007f80ac58cd000000000000000000000000000000000000000000000000000000007bffffffffffffffffffffffffffffffffffffffffffffffffffffffff1916827bffffffffffffffffffffffffffffffffffffffffffffffffffffffff1916148061205557507f5b5e139f000000000000000000000000000000000000000000000000000000007bffffffffffffffffffffffffffffffffffffffffffffffffffffffff1916827bffffffffffffffffffffffffffffffffffffffffffffffffffffffff1916145b80612065575061206482612331565b5b9050919050565b612076838361239b565b61208360008484846120dc565b6120c2576040517f08c379a00000000000000000000000000000000000000000000000000000000081526004016120b99061358e565b60405180910390fd5b505050565b6120d2838383612575565b505050565b505050565b60006120fd8473ffffffffffffffffffffffffffffffffffffffff16612689565b15612266578373ffffffffffffffffffffffffffffffffffffffff1663150b7a02612126611381565b8786866040518563ffffffff1660e01b8152600401612148949392919061347e565b602060405180830381600087803b15801561216257600080fd5b505af192505050801561219357506040513d601f19601f820116820180604052508101906121909190612d6d565b60015b612216573d80600081146121c3576040519150601f19603f3d011682016040523d82523d6000602084013e6121c8565b606091505b5060008151141561220e576040517f08c379a00000000000000000000000000000000000000000000000000000000081526004016122059061358e565b60405180910390fd5b805181602001fd5b63150b7a0260e01b7bffffffffffffffffffffffffffffffffffffffffffffffffffffffff1916817bffffffffffffffffffffffffffffffffffffffffffffffffffffffff19161491505061226b565b600190505b949350505050565b606060405180602001604052806000815250905090565b606061229582611315565b6122d4576040517f08c379a00000000000000000000000000000000000000000000000000000000081526004016122cb9061372e565b60405180910390fd5b60006122de612273565b905060008151116122fe5760405180602001604052806000815250612329565b8061230884611a66565b6040516020016123199291906132d6565b6040516020818303038152906040525b915050919050565b60007f01ffc9a7000000000000000000000000000000000000000000000000000000007bffffffffffffffffffffffffffffffffffffffffffffffffffffffff1916827bffffffffffffffffffffffffffffffffffffffffffffffffffffffff1916149050919050565b600073ffffffffffffffffffffffffffffffffffffffff168273ffffffffffffffffffffffffffffffffffffffff16141561240b576040517f08c379a0000000000000000000000000000000000000000000000000000000008152600401612402906136ce565b60405180910390fd5b61241481611315565b15612454576040517f08c379a000000000000000000000000000000000000000000000000000000000815260040161244b906135ce565b60405180910390fd5b612460600083836120c7565b6001600360008473ffffffffffffffffffffffffffffffffffffffff1673ffffffffffffffffffffffffffffffffffffffff16815260200190815260200160002060008282546124b09190613877565b92505081905550816002600083815260200190815260200160002060006101000a81548173ffffffffffffffffffffffffffffffffffffffff021916908373ffffffffffffffffffffffffffffffffffffffff160217905550808273ffffffffffffffffffffffffffffffffffffffff16600073ffffffffffffffffffffffffffffffffffffffff167fddf252ad1be2c89b69c2b068fc378daa952ba7f163c4a11628f55a4df523b3ef60405160405180910390a4612571600083836120d7565b5050565b6125808383836126ac565b600073ffffffffffffffffffffffffffffffffffffffff168373ffffffffffffffffffffffffffffffffffffffff1614156125c3576125be816126b1565b612602565b8173ffffffffffffffffffffffffffffffffffffffff168373ffffffffffffffffffffffffffffffffffffffff16146126015761260083826126fa565b5b5b600073ffffffffffffffffffffffffffffffffffffffff168273ffffffffffffffffffffffffffffffffffffffff1614156126455761264081612867565b612684565b8273ffffffffffffffffffffffffffffffffffffffff168273ffffffffffffffffffffffffffffffffffffffff16146126835761268282826129aa565b5b5b505050565b6000808273ffffffffffffffffffffffffffffffffffffffff163b119050919050565b505050565b6008805490506009600083815260200190815260200160002081905550600881908060018154018082558091505060019003906000526020600020016000909190919091505550565b6000600161270784610d5e565b6127119190613958565b90506000600760008481526020019081526020016000205490508181146127f6576000600660008673ffffffffffffffffffffffffffffffffffffffff1673ffffffffffffffffffffffffffffffffffffffff168152602001908152602001600020600084815260200190815260200160002054905080600660008773ffffffffffffffffffffffffffffffffffffffff1673ffffffffffffffffffffffffffffffffffffffff168152602001908152602001600020600084815260200190815260200160002081905550816007600083815260200190815260200160002081905550505b6007600084815260200190815260200160002060009055600660008573ffffffffffffffffffffffffffffffffffffffff1673ffffffffffffffffffffffffffffffffffffffff16815260200190815260200160002060008381526020019081526020016000206000905550505050565b6000600160088054905061287b9190613958565b90506000600960008481526020019081526020016000205490506000600883815481106128d1577f4e487b7100000000000000000000000000000000000000000000000000000000600052603260045260246000fd5b906000526020600020015490508060088381548110612919577f4e487b7100000000000000000000000000000000000000000000000000000000600052603260045260246000fd5b90600052602060002001819055508160096000838152602001908152602001600020819055506009600085815260200190815260200160002060009055600880548061298e577f4e487b7100000000000000000000000000000000000000000000000000000000600052603160045260246000fd5b6001900381819060005260206000200160009055905550505050565b60006129b583610d5e565b905081600660008573ffffffffffffffffffffffffffffffffffffffff1673ffffffffffffffffffffffffffffffffffffffff168152602001908152602001600020600083815260200190815260200160002081905550806007600084815260200190815260200160002081905550505050565b828054612a3590613a42565b90600052602060002090601f016020900481019282612a575760008555612a9e565b82601f10612a7057805160ff1916838001178555612a9e565b82800160010185558215612a9e579182015b82811115612a9d578251825591602001919060010190612a82565b5b509050612aab9190612aaf565b5090565b5b80821115612ac8576000816000905550600101612ab0565b5090565b6000612adf612ada846137ee565b6137c9565b905082815260208101848484011115612af757600080fd5b612b02848285613a00565b509392505050565b600081359050612b19816142eb565b92915050565b600081359050612b2e81614302565b92915050565b600081359050612b4381614319565b92915050565b600081519050612b5881614319565b92915050565b600082601f830112612b6f57600080fd5b8135612b7f848260208601612acc565b91505092915050565b600081359050612b9781614330565b92915050565b600060208284031215612baf57600080fd5b6000612bbd84828501612b0a565b91505092915050565b60008060408385031215612bd957600080fd5b6000612be785828601612b0a565b9250506020612bf885828601612b0a565b9150509250929050565b600080600060608486031215612c1757600080fd5b6000612c2586828701612b0a565b9350506020612c3686828701612b0a565b9250506040612c4786828701612b88565b9150509250925092565b60008060008060808587031215612c6757600080fd5b6000612c7587828801612b0a565b9450506020612c8687828801612b0a565b9350506040612c9787828801612b88565b925050606085013567ffffffffffffffff811115612cb457600080fd5b612cc087828801612b5e565b91505092959194509250565b60008060408385031215612cdf57600080fd5b6000612ced85828601612b0a565b9250506020612cfe85828601612b1f565b9150509250929050565b60008060408385031215612d1b57600080fd5b6000612d2985828601612b0a565b9250506020612d3a85828601612b88565b9150509250929050565b600060208284031215612d5657600080fd5b6000612d6484828501612b34565b91505092915050565b600060208284031215612d7f57600080fd5b6000612d8d84828501612b49565b91505092915050565b600060208284031215612da857600080fd5b6000612db684828501612b88565b91505092915050565b612dc88161398c565b82525050565b612dd78161399e565b82525050565b6000612de882613834565b612df2818561384a565b9350612e02818560208601613a0f565b612e0b81613bdb565b840191505092915050565b6000612e218261383f565b612e2b818561385b565b9350612e3b818560208601613a0f565b612e4481613bdb565b840191505092915050565b6000612e5a8261383f565b612e64818561386c565b9350612e74818560208601613a0f565b80840191505092915050565b60008154612e8d81613a42565b612e97818661386c565b94506001821660008114612eb25760018114612ec357612ef6565b60ff19831686528186019350612ef6565b612ecc8561381f565b60005b83811015612eee57815481890152600182019150602081019050612ecf565b838801955050505b50505092915050565b6000612f0c602b8361385b565b9150612f1782613bec565b604082019050919050565b6000612f2f60328361385b565b9150612f3a82613c3b565b604082019050919050565b6000612f5260258361385b565b9150612f5d82613c8a565b604082019050919050565b6000612f75601c8361385b565b9150612f8082613cd9565b602082019050919050565b6000612f98600a8361386c565b9150612fa382613d02565b600a82019050919050565b6000612fbb60248361385b565b9150612fc682613d2b565b604082019050919050565b6000612fde60198361385b565b9150612fe982613d7a565b602082019050919050565b600061300160638361386c565b915061300c82613da3565b606382019050919050565b6000613024600b8361386c565b915061302f82613e3e565b600b82019050919050565b6000613047602c8361385b565b915061305282613e67565b604082019050919050565b600061306a600d8361386c565b915061307582613eb6565b600d82019050919050565b600061308d60388361385b565b915061309882613edf565b604082019050919050565b60006130b0602a8361385b565b91506130bb82613f2e565b604082019050919050565b60006130d360298361385b565b91506130de82613f7d565b604082019050919050565b60006130f6602e8361385b565b915061310182613fcc565b604082019050919050565b600061311960028361386c565b91506131248261401b565b600282019050919050565b600061313c60208361385b565b915061314782614044565b602082019050919050565b600061315f60318361385b565b915061316a8261406d565b604082019050919050565b6000613182602c8361385b565b915061318d826140bc565b604082019050919050565b60006131a5602f8361385b565b91506131b08261410b565b604082019050919050565b60006131c8600a8361386c565b91506131d38261415a565b600a82019050919050565b60006131eb60218361385b565b91506131f682614183565b604082019050919050565b600061320e600a8361386c565b9150613219826141d2565b600a82019050919050565b6000613231601d8361386c565b915061323c826141fb565b601d82019050919050565b600061325460318361385b565b915061325f82614224565b604082019050919050565b6000613277602c8361385b565b915061328282614273565b604082019050919050565b600061329a60058361386c565b91506132a5826142c2565b600582019050919050565b6132b9816139f6565b82525050565b60006132cb8284612e4f565b915081905092915050565b60006132e28285612e4f565b91506132ee8284612e4f565b91508190509392505050565b60006133068286612e4f565b91506133128285612e4f565b915061331e8284612e4f565b9150819050949350505050565b60006133378287612e80565b91506133438286612e4f565b915061334f8285612e80565b915061335b8284612e4f565b91506133668261305d565b915081905095945050505050565b600061337f82612f8b565b915061338b8284612e4f565b915081905092915050565b60006133a182613017565b91506133ad8284612e4f565b915081905092915050565b60006133c3826131bb565b91506133cf8285612e4f565b91506133da82612ff4565b91506133e68284612e4f565b91506133f18261310c565b91508190509392505050565b600061340882613201565b91506134148284612e4f565b915081905092915050565b600061342a82613224565b91506134368284612e4f565b915081905092915050565b600061344c8261328d565b91506134588284612e4f565b915081905092915050565b60006020820190506134786000830184612dbf565b92915050565b60006080820190506134936000830187612dbf565b6134a06020830186612dbf565b6134ad60408301856132b0565b81810360608301526134bf8184612ddd565b905095945050505050565b60006040820190506134df6000830185612dbf565b6134ec60208301846132b0565b9392505050565b60006020820190506135086000830184612dce565b92915050565b600060208201905081810360008301526135288184612e16565b905092915050565b6000606082019050818103600083015261354a8186612e16565b905061355960208301856132b0565b6135666040830184612dbf565b949350505050565b6000602082019050818103600083015261358781612eff565b9050919050565b600060208201905081810360008301526135a781612f22565b9050919050565b600060208201905081810360008301526135c781612f45565b9050919050565b600060208201905081810360008301526135e781612f68565b9050919050565b6000602082019050818103600083015261360781612fae565b9050919050565b6000602082019050818103600083015261362781612fd1565b9050919050565b600060208201905081810360008301526136478161303a565b9050919050565b6000602082019050818103600083015261366781613080565b9050919050565b60006020820190508181036000830152613687816130a3565b9050919050565b600060208201905081810360008301526136a7816130c6565b9050919050565b600060208201905081810360008301526136c7816130e9565b9050919050565b600060208201905081810360008301526136e78161312f565b9050919050565b6000602082019050818103600083015261370781613152565b9050919050565b6000602082019050818103600083015261372781613175565b9050919050565b6000602082019050818103600083015261374781613198565b9050919050565b60006020820190508181036000830152613767816131de565b9050919050565b6000602082019050818103600083015261378781613247565b9050919050565b600060208201905081810360008301526137a78161326a565b9050919050565b60006020820190506137c360008301846132b0565b92915050565b60006137d36137e4565b90506137df8282613a74565b919050565b6000604051905090565b600067ffffffffffffffff82111561380957613808613bac565b5b61381282613bdb565b9050602081019050919050565b60008190508160005260206000209050919050565b600081519050919050565b600081519050919050565b600082825260208201905092915050565b600082825260208201905092915050565b600081905092915050565b6000613882826139f6565b915061388d836139f6565b9250827fffffffffffffffffffffffffffffffffffffffffffffffffffffffffffffffff038211156138c2576138c1613b1f565b5b828201905092915050565b60006138d8826139f6565b91506138e3836139f6565b9250826138f3576138f2613b4e565b5b828204905092915050565b6000613909826139f6565b9150613914836139f6565b9250817fffffffffffffffffffffffffffffffffffffffffffffffffffffffffffffffff048311821515161561394d5761394c613b1f565b5b828202905092915050565b6000613963826139f6565b915061396e836139f6565b92508282101561398157613980613b1f565b5b828203905092915050565b6000613997826139d6565b9050919050565b60008115159050919050565b60007fffffffff0000000000000000000000000000000000000000000000000000000082169050919050565b600073ffffffffffffffffffffffffffffffffffffffff82169050919050565b6000819050919050565b82818337600083830152505050565b60005b83811015613a2d578082015181840152602081019050613a12565b83811115613a3c576000848401525b50505050565b60006002820490506001821680613a5a57607f821691505b60208210811415613a6e57613a6d613b7d565b5b50919050565b613a7d82613bdb565b810181811067ffffffffffffffff82111715613a9c57613a9b613bac565b5b80604052505050565b6000613ab0826139f6565b91507fffffffffffffffffffffffffffffffffffffffffffffffffffffffffffffffff821415613ae357613ae2613b1f565b5b600182019050919050565b6000613af9826139f6565b9150613b04836139f6565b925082613b1457613b13613b4e565b5b828206905092915050565b7f4e487b7100000000000000000000000000000000000000000000000000000000600052601160045260246000fd5b7f4e487b7100000000000000000000000000000000000000000000000000000000600052601260045260246000fd5b7f4e487b7100000000000000000000000000000000000000000000000000000000600052602260045260246000fd5b7f4e487b7100000000000000000000000000000000000000000000000000000000600052604160045260246000fd5b6000601f19601f8301169050919050565b7f455243373231456e756d657261626c653a206f776e657220696e646578206f7560008201527f74206f6620626f756e6473000000000000000000000000000000000000000000602082015250565b7f4552433732313a207472616e7366657220746f206e6f6e20455243373231526560008201527f63656976657220696d706c656d656e7465720000000000000000000000000000602082015250565b7f4552433732313a207472616e736665722066726f6d20696e636f72726563742060008201527f6f776e6572000000000000000000000000000000000000000000000000000000602082015250565b7f4552433732313a20746f6b656e20616c7265616479206d696e74656400000000600082015250565b7f54484952445f574f524400000000000000000000000000000000000000000000600082015250565b7f4552433732313a207472616e7366657220746f20746865207a65726f2061646460008201527f7265737300000000000000000000000000000000000000000000000000000000602082015250565b7f4552433732313a20617070726f766520746f2063616c6c657200000000000000600082015250565b7f222c20226465736372697074696f6e223a20224120686967686c79206163636c60008201527f61696d656420636f6c6c656374696f6e206f6620737175617265732e222c202260208201527f696d616765223a2022646174613a696d6167652f7376672b786d6c3b6261736560408201527f36342c0000000000000000000000000000000000000000000000000000000000606082015250565b7f5345434f4e445f574f5244000000000000000000000000000000000000000000600082015250565b7f4552433732313a206f70657261746f7220717565727920666f72206e6f6e657860008201527f697374656e7420746f6b656e0000000000000000000000000000000000000000602082015250565b7f3c2f746578743e3c2f7376673e00000000000000000000000000000000000000600082015250565b7f4552433732313a20617070726f76652063616c6c6572206973206e6f74206f7760008201527f6e6572206e6f7220617070726f76656420666f7220616c6c0000000000000000602082015250565b7f4552433732313a2062616c616e636520717565727920666f7220746865207a6560008201527f726f206164647265737300000000000000000000000000000000000000000000602082015250565b7f4552433732313a206f776e657220717565727920666f72206e6f6e657869737460008201527f656e7420746f6b656e0000000000000000000000000000000000000000000000602082015250565b7f45524337323155524953746f726167653a2055524920736574206f66206e6f6e60008201527f6578697374656e7420746f6b656e000000000000000000000000000000000000602082015250565b7f227d000000000000000000000000000000000000000000000000000000000000600082015250565b7f4552433732313a206d696e7420746f20746865207a65726f2061646472657373600082015250565b7f45524337323155524953746f726167653a2055524920717565727920666f722060008201527f6e6f6e6578697374656e7420746f6b656e000000000000000000000000000000602082015250565b7f4552433732313a20617070726f76656420717565727920666f72206e6f6e657860008201527f697374656e7420746f6b656e0000000000000000000000000000000000000000602082015250565b7f4552433732314d657461646174613a2055524920717565727920666f72206e6f60008201527f6e6578697374656e7420746f6b656e0000000000000000000000000000000000602082015250565b7f7b226e616d65223a202200000000000000000000000000000000000000000000600082015250565b7f4552433732313a20617070726f76616c20746f2063757272656e74206f776e6560008201527f7200000000000000000000000000000000000000000000000000000000000000602082015250565b7f46495253545f574f524400000000000000000000000000000000000000000000600082015250565b7f646174613a6170706c69636174696f6e2f6a736f6e3b6261736536342c000000600082015250565b7f4552433732313a207472616e736665722063616c6c6572206973206e6f74206f60008201527f776e6572206e6f7220617070726f766564000000000000000000000000000000602082015250565b7f455243373231456e756d657261626c653a20676c6f62616c20696e646578206f60008201527f7574206f6620626f756e64730000000000000000000000000000000000000000602082015250565b7f434f4c4f52000000000000000000000000000000000000000000000000000000600082015250565b6142f48161398c565b81146142ff57600080fd5b50565b61430b8161399e565b811461431657600080fd5b50565b614322816139aa565b811461432d57600080fd5b50565b614339816139f6565b811461434457600080fd5b5056fe416e204e465420772f20494420257320686173206265656e206d696e74656420746f2025734142434445464748494a4b4c4d4e4f505152535455565758595a6162636465666768696a6b6c6d6e6f707172737475767778797a303132333435363738392b2fa2646970667358221220e85da4ead950d9ed14c40d9088f1ea1b5bfba059d383214313fa70db0849b0ef64736f6c634300080200333c73766720786d6c6e733d27687474703a2f2f7777772e77332e6f72672f323030302f73766727207072657365727665417370656374526174696f3d27784d696e594d696e206d656574272076696577426f783d273020302033353020333530273e3c7374796c653e2e62617365207b2066696c6c3a2077686974653b20666f6e742d66616d696c793a2073657269663b20666f6e742d73697a653a20323470783b207d3c2f7374796c653e3c726563742077696474683d273130302527206865696768743d2731303025272066696c6c3d27272f3e3c7465787420783d273530252720793d273530252720636c6173733d27626173652720646f6d696e616e742d626173656c696e653d276d6964646c652720746578742d616e63686f723d276d6964646c65273e",
  "linkReferences": {},
  "deployedLinkReferences": {}
}