{
  "_format": "hh-sol-artifact-1",
  "contractName": "Words",
  "sourceName": "contracts/Words.sol",
  "abi": [
    {
      "inputs": [],
      "stateMutability": "nonpayable",
      "type": "constructor"
    },
    {
      "anonymous": false,
      "inputs": [
        {
          "indexed": true,
          "internalType": "address",
          "name": "owner",
          "type": "address"
        },
        {
          "indexed": true,
          "internalType": "address",
          "name": "approved",
          "type": "address"
        },
        {
          "indexed": true,
          "internalType": "uint256",
          "name": "tokenId",
          "type": "uint256"
        }
      ],
      "name": "Approval",
      "type": "event"
    },
    {
      "anonymous": false,
      "inputs": [
        {
          "indexed": true,
          "internalType": "address",
          "name": "owner",
          "type": "address"
        },
        {
          "indexed": true,
          "internalType": "address",
          "name": "operator",
          "type": "address"
        },
        {
          "indexed": false,
          "internalType": "bool",
          "name": "approved",
          "type": "bool"
        }
      ],
      "name": "ApprovalForAll",
      "type": "event"
    },
    {
      "anonymous": false,
      "inputs": [
        {
          "indexed": false,
          "internalType": "address",
          "name": "sender",
          "type": "address"
        },
        {
          "indexed": false,
          "internalType": "uint256",
          "name": "tokenId",
          "type": "uint256"
        }
      ],
      "name": "NewEpicNFTMinted",
      "type": "event"
    },
    {
      "anonymous": false,
      "inputs": [
        {
          "indexed": true,
          "internalType": "address",
          "name": "from",
          "type": "address"
        },
        {
          "indexed": true,
          "internalType": "address",
          "name": "to",
          "type": "address"
        },
        {
          "indexed": true,
          "internalType": "uint256",
          "name": "tokenId",
          "type": "uint256"
        }
      ],
      "name": "Transfer",
      "type": "event"
    },
    {
      "inputs": [
        {
          "internalType": "address",
          "name": "to",
          "type": "address"
        },
        {
          "internalType": "uint256",
          "name": "tokenId",
          "type": "uint256"
        }
      ],
      "name": "approve",
      "outputs": [],
      "stateMutability": "nonpayable",
      "type": "function"
    },
    {
      "inputs": [
        {
          "internalType": "address",
          "name": "owner",
          "type": "address"
        }
      ],
      "name": "balanceOf",
      "outputs": [
        {
          "internalType": "uint256",
          "name": "",
          "type": "uint256"
        }
      ],
      "stateMutability": "view",
      "type": "function"
    },
    {
      "inputs": [
        {
          "internalType": "uint256",
          "name": "tokenId",
          "type": "uint256"
        }
      ],
      "name": "getApproved",
      "outputs": [
        {
          "internalType": "address",
          "name": "",
          "type": "address"
        }
      ],
      "stateMutability": "view",
      "type": "function"
    },
    {
      "inputs": [
        {
          "internalType": "address",
          "name": "owner",
          "type": "address"
        },
        {
          "internalType": "address",
          "name": "operator",
          "type": "address"
        }
      ],
      "name": "isApprovedForAll",
      "outputs": [
        {
          "internalType": "bool",
          "name": "",
          "type": "bool"
        }
      ],
      "stateMutability": "view",
      "type": "function"
    },
    {
      "inputs": [],
      "name": "mint",
      "outputs": [],
      "stateMutability": "nonpayable",
      "type": "function"
    },
    {
      "inputs": [],
      "name": "name",
      "outputs": [
        {
          "internalType": "string",
          "name": "",
          "type": "string"
        }
      ],
      "stateMutability": "view",
      "type": "function"
    },
    {
      "inputs": [
        {
          "internalType": "uint256",
          "name": "tokenId",
          "type": "uint256"
        }
      ],
      "name": "ownerOf",
      "outputs": [
        {
          "internalType": "address",
          "name": "",
          "type": "address"
        }
      ],
      "stateMutability": "view",
      "type": "function"
    },
    {
      "inputs": [
        {
          "internalType": "uint256",
          "name": "tokenId",
          "type": "uint256"
        }
      ],
      "name": "pickRandomColor",
      "outputs": [
        {
          "internalType": "string",
          "name": "",
          "type": "string"
        }
      ],
      "stateMutability": "view",
      "type": "function"
    },
    {
      "inputs": [
        {
          "internalType": "uint256",
          "name": "tokenId",
          "type": "uint256"
        }
      ],
      "name": "pickRandomFirstWord",
      "outputs": [
        {
          "internalType": "string",
          "name": "",
          "type": "string"
        }
      ],
      "stateMutability": "view",
      "type": "function"
    },
    {
      "inputs": [
        {
          "internalType": "uint256",
          "name": "tokenId",
          "type": "uint256"
        }
      ],
      "name": "pickRandomSecondWord",
      "outputs": [
        {
          "internalType": "string",
          "name": "",
          "type": "string"
        }
      ],
      "stateMutability": "view",
      "type": "function"
    },
    {
      "inputs": [
        {
          "internalType": "uint256",
          "name": "tokenId",
          "type": "uint256"
        }
      ],
      "name": "pickRandomThirdWord",
      "outputs": [
        {
          "internalType": "string",
          "name": "",
          "type": "string"
        }
      ],
      "stateMutability": "view",
      "type": "function"
    },
    {
      "inputs": [
        {
          "internalType": "address",
          "name": "from",
          "type": "address"
        },
        {
          "internalType": "address",
          "name": "to",
          "type": "address"
        },
        {
          "internalType": "uint256",
          "name": "tokenId",
          "type": "uint256"
        }
      ],
      "name": "safeTransferFrom",
      "outputs": [],
      "stateMutability": "nonpayable",
      "type": "function"
    },
    {
      "inputs": [
        {
          "internalType": "address",
          "name": "from",
          "type": "address"
        },
        {
          "internalType": "address",
          "name": "to",
          "type": "address"
        },
        {
          "internalType": "uint256",
          "name": "tokenId",
          "type": "uint256"
        },
        {
          "internalType": "bytes",
          "name": "_data",
          "type": "bytes"
        }
      ],
      "name": "safeTransferFrom",
      "outputs": [],
      "stateMutability": "nonpayable",
      "type": "function"
    },
    {
      "inputs": [
        {
          "internalType": "address",
          "name": "operator",
          "type": "address"
        },
        {
          "internalType": "bool",
          "name": "approved",
          "type": "bool"
        }
      ],
      "name": "setApprovalForAll",
      "outputs": [],
      "stateMutability": "nonpayable",
      "type": "function"
    },
    {
      "inputs": [
        {
          "internalType": "bytes4",
          "name": "interfaceId",
          "type": "bytes4"
        }
      ],
      "name": "supportsInterface",
      "outputs": [
        {
          "internalType": "bool",
          "name": "",
          "type": "bool"
        }
      ],
      "stateMutability": "view",
      "type": "function"
    },
    {
      "inputs": [],
      "name": "symbol",
      "outputs": [
        {
          "internalType": "string",
          "name": "",
          "type": "string"
        }
      ],
      "stateMutability": "view",
      "type": "function"
    },
    {
      "inputs": [
        {
          "internalType": "uint256",
          "name": "index",
          "type": "uint256"
        }
      ],
      "name": "tokenByIndex",
      "outputs": [
        {
          "internalType": "uint256",
          "name": "",
          "type": "uint256"
        }
      ],
      "stateMutability": "view",
      "type": "function"
    },
    {
      "inputs": [
        {
          "internalType": "address",
          "name": "owner",
          "type": "address"
        },
        {
          "internalType": "uint256",
          "name": "index",
          "type": "uint256"
        }
      ],
      "name": "tokenOfOwnerByIndex",
      "outputs": [
        {
          "internalType": "uint256",
          "name": "",
          "type": "uint256"
        }
      ],
      "stateMutability": "view",
      "type": "function"
    },
    {
      "inputs": [
        {
          "internalType": "uint256",
          "name": "tokenId",
          "type": "uint256"
        }
      ],
      "name": "tokenURI",
      "outputs": [
        {
          "internalType": "string",
          "name": "",
          "type": "string"
        }
      ],
      "stateMutability": "view",
      "type": "function"
    },
    {
      "inputs": [],
      "name": "totalSupply",
      "outputs": [
        {
          "internalType": "uint256",
          "name": "",
          "type": "uint256"
        }
      ],
      "stateMutability": "view",
      "type": "function"
    },
    {
      "inputs": [
        {
          "internalType": "address",
          "name": "from",
          "type": "address"
        },
        {
          "internalType": "address",
          "name": "to",
          "type": "address"
        },
        {
          "internalType": "uint256",
          "name": "tokenId",
          "type": "uint256"
        }
      ],
      "name": "transferFrom",
      "outputs": [],
      "stateMutability": "nonpayable",
      "type": "function"
    }
  ],
  "bytecode": "0x608060405260405180610100016040528060d3815260200162004d5060d39139600c9080519060200190620000369291906200082c565b5060405180608001604052806056815260200162004e2360569139600d9080519060200190620000689291906200082c565b506040518060c001604052806040518060400160405280600581526020017f50697a7a6100000000000000000000000000000000000000000000000000000081525081526020016040518060400160405280600381526020017f506965000000000000000000000000000000000000000000000000000000000081525081526020016040518060400160405280600481526020017f43616b650000000000000000000000000000000000000000000000000000000081525081526020016040518060400160405280600581526020017f427265616400000000000000000000000000000000000000000000000000000081525081526020016040518060400160405280600581526020017f43616e647900000000000000000000000000000000000000000000000000000081525081526020016040518060400160405280600581526020017f4a75696365000000000000000000000000000000000000000000000000000000815250815250600e906006620001e6929190620008bd565b506040518060c001604052806040518060400160405280600581526020017f4170706c6500000000000000000000000000000000000000000000000000000081525081526020016040518060400160405280600581526020017f4d616e676f00000000000000000000000000000000000000000000000000000081525081526020016040518060400160405280600681526020017f4f72616e6765000000000000000000000000000000000000000000000000000081525081526020016040518060400160405280600581526020017f506561636800000000000000000000000000000000000000000000000000000081525081526020016040518060400160405280600981526020017f50696e656170706c65000000000000000000000000000000000000000000000081525081526020016040518060400160405280600581526020017f4772617065000000000000000000000000000000000000000000000000000000815250815250600f90600662000364929190620008bd565b506040518060c001604052806040518060400160405280600581526020017f537765657400000000000000000000000000000000000000000000000000000081525081526020016040518060400160405280600481526020017f536f75720000000000000000000000000000000000000000000000000000000081525081526020016040518060400160405280600681526020017f426974746572000000000000000000000000000000000000000000000000000081525081526020016040518060400160405280600681526020017f53616c746564000000000000000000000000000000000000000000000000000081525081526020016040518060400160405280600681526020017f4368696c6c79000000000000000000000000000000000000000000000000000081525081526020016040518060400160405280600581526020017f426c616e640000000000000000000000000000000000000000000000000000008152508152506010906006620004e2929190620008bd565b506040518060c001604052806040518060400160405280600381526020017f726564000000000000000000000000000000000000000000000000000000000081525081526020016040518060400160405280600781526020017f233038433241380000000000000000000000000000000000000000000000000081525081526020016040518060400160405280600581526020017f626c61636b00000000000000000000000000000000000000000000000000000081525081526020016040518060400160405280600681526020017f79656c6c6f77000000000000000000000000000000000000000000000000000081525081526020016040518060400160405280600481526020017f626c75650000000000000000000000000000000000000000000000000000000081525081526020016040518060400160405280600581526020017f677265656e000000000000000000000000000000000000000000000000000000815250815250601190600662000660929190620008bd565b503480156200066e57600080fd5b506040518060400160405280600981526020017f5371756172654e465400000000000000000000000000000000000000000000008152506040518060400160405280600681526020017f53515541524500000000000000000000000000000000000000000000000000008152508160009080519060200190620006f39291906200082c565b5080600190805190602001906200070c9291906200082c565b5050506200075a6040518060400160405280601e81526020017f54686973206973206d79204e465420636f6e74726163742e20576f61682100008152506200076060201b6200123a1760201c565b62000ade565b6200080081604051602401620007779190620009f2565b6040516020818303038152906040527f41304fac000000000000000000000000000000000000000000000000000000007bffffffffffffffffffffffffffffffffffffffffffffffffffffffff19166020820180517bffffffffffffffffffffffffffffffffffffffffffffffffffffffff83818316178352505050506200080360201b60201c565b50565b60008151905060006a636f6e736f6c652e6c6f679050602083016000808483855afa5050505050565b8280546200083a9062000a68565b90600052602060002090601f0160209004810192826200085e5760008555620008aa565b82601f106200087957805160ff1916838001178555620008aa565b82800160010185558215620008aa579182015b82811115620008a95782518255916020019190600101906200088c565b5b509050620008b9919062000924565b5090565b82805482825590600052602060002090810192821562000911579160200282015b8281111562000910578251829080519060200190620008ff9291906200082c565b5091602001919060010190620008de565b5b50905062000920919062000943565b5090565b5b808211156200093f57600081600090555060010162000925565b5090565b5b808211156200096757600081816200095d91906200096b565b5060010162000944565b5090565b508054620009799062000a68565b6000825580601f106200098d5750620009ae565b601f016020900490600052602060002090810190620009ad919062000924565b5b50565b6000620009be8262000a16565b620009ca818562000a21565b9350620009dc81856020860162000a32565b620009e78162000acd565b840191505092915050565b6000602082019050818103600083015262000a0e8184620009b1565b905092915050565b600081519050919050565b600082825260208201905092915050565b60005b8381101562000a5257808201518184015260208101905062000a35565b8381111562000a62576000848401525b50505050565b6000600282049050600182168062000a8157607f821691505b6020821081141562000a985762000a9762000a9e565b5b50919050565b7f4e487b7100000000000000000000000000000000000000000000000000000000600052602260045260246000fd5b6000601f19601f8301169050919050565b6142628062000aee6000396000f3fe608060405234801561001057600080fd5b50600436106101375760003560e01c80634f6ccce7116100b8578063a22cb4651161007c578063a22cb46514610374578063b187301f14610390578063b88d4fde146103c0578063c575757a146103dc578063c87b56dd1461040c578063e985e9c51461043c57610137565b80634f6ccce714610296578063514dc8c6146102c65780636352211e146102f657806370a082311461032657806395d89b411461035657610137565b806318160ddd116100ff57806318160ddd146101e057806323b872dd146101fe5780632de38d681461021a5780632f745c591461024a57806342842e0e1461027a57610137565b806301ffc9a71461013c57806306fdde031461016c578063081812fc1461018a578063095ea7b3146101ba5780631249c58b146101d6575b600080fd5b61015660048036038101906101519190612d7c565b61046c565b6040516101639190613417565b60405180910390f35b61017461047e565b6040516101819190613432565b60405180910390f35b6101a4600480360381019061019f9190612dce565b610510565b6040516101b19190613387565b60405180910390f35b6101d460048036038101906101cf9190612d40565b610595565b005b6101de6106ad565b005b6101e86108a7565b6040516101f591906136d2565b60405180910390f35b61021860048036038101906102139190612c3a565b6108b4565b005b610234600480360381019061022f9190612dce565b610914565b6040516102419190613432565b60405180910390f35b610264600480360381019061025f9190612d40565b610a40565b60405161027191906136d2565b60405180910390f35b610294600480360381019061028f9190612c3a565b610ae5565b005b6102b060048036038101906102ab9190612dce565b610b05565b6040516102bd91906136d2565b60405180910390f35b6102e060048036038101906102db9190612dce565b610b9c565b6040516102ed9190613432565b60405180910390f35b610310600480360381019061030b9190612dce565b610cc8565b60405161031d9190613387565b60405180910390f35b610340600480360381019061033b9190612bd5565b610d7a565b60405161034d91906136d2565b60405180910390f35b61035e610e32565b60405161036b9190613432565b60405180910390f35b61038e60048036038101906103899190612d04565b610ec4565b005b6103aa60048036038101906103a59190612dce565b610eda565b6040516103b79190613432565b60405180910390f35b6103da60048036038101906103d59190612c89565b611006565b005b6103f660048036038101906103f19190612dce565b611068565b6040516104039190613432565b60405180910390f35b61042660048036038101906104219190612dce565b611194565b6040516104339190613432565b60405180910390f35b61045660048036038101906104519190612bfe565b6111a6565b6040516104639190613417565b60405180910390f35b6000610477826112d3565b9050919050565b60606000805461048d90613966565b80601f01602080910402602001604051908101604052809291908181526020018280546104b990613966565b80156105065780601f106104db57610100808354040283529160200191610506565b820191906000526020600020905b8154815290600101906020018083116104e957829003601f168201915b5050505050905090565b600061051b8261134d565b61055a576040517f08c379a000000000000000000000000000000000000000000000000000000000815260040161055190613632565b60405180910390fd5b6004600083815260200190815260200160002060009054906101000a900473ffffffffffffffffffffffffffffffffffffffff169050919050565b60006105a082610cc8565b90508073ffffffffffffffffffffffffffffffffffffffff168373ffffffffffffffffffffffffffffffffffffffff161415610611576040517f08c379a000000000000000000000000000000000000000000000000000000000815260040161060890613672565b60405180910390fd5b8073ffffffffffffffffffffffffffffffffffffffff166106306113b9565b73ffffffffffffffffffffffffffffffffffffffff16148061065f575061065e816106596113b9565b6111a6565b5b61069e576040517f08c379a000000000000000000000000000000000000000000000000000000000815260040161069590613572565b60405180910390fd5b6106a883836113c1565b505050565b60006106b9600b61147a565b905060006106c682610914565b905060006106d383610eda565b905060006106e084611068565b905060008383836040516020016106f9939291906132a6565b6040516020818303038152906040529050600061071586610b9c565b90506000600c82600d8560405160200161073294939291906132d7565b604051602081830303815290604052905060006107778461075284611488565b604051602001610763929190613320565b604051602081830303815290604052611488565b905060008160405160200161078c9190613365565b60405160208183030381529060405290506107db6040518060400160405280601581526020017f0a2d2d2d2d2d2d2d2d2d2d2d2d2d2d2d2d2d2d2d2d000000000000000000000081525061123a565b6107e48161123a565b6108226040518060400160405280601581526020017f2d2d2d2d2d2d2d2d2d2d2d2d2d2d2d2d2d2d2d2d0a000000000000000000000081525061123a565b61082c338a611612565b6108368982611630565b610840600b6116a4565b6108636040518060600160405280602581526020016141c8602591398a336116ba565b7febb98688741ffa4c7589bf325de30cf7becb63de567842e1ccdb6cb949fdc82c338a6040516108949291906133ee565b60405180910390a1505050505050505050565b6000600880549050905090565b6108c56108bf6113b9565b82611759565b610904576040517f08c379a00000000000000000000000000000000000000000000000000000000081526004016108fb90613692565b60405180910390fd5b61090f838383611837565b505050565b60606000610956610928434060001c611a9e565b61093185611a9e565b604051602001610942929190613282565b604051602081830303815290604052611c4b565b9050600e80549050816109699190613a12565b9050600e81815481106109a5577f4e487b7100000000000000000000000000000000000000000000000000000000600052603260045260246000fd5b9060005260206000200180546109ba90613966565b80601f01602080910402602001604051908101604052809291908181526020018280546109e690613966565b8015610a335780601f10610a0857610100808354040283529160200191610a33565b820191906000526020600020905b815481529060010190602001808311610a1657829003601f168201915b5050505050915050919050565b6000610a4b83610d7a565b8210610a8c576040517f08c379a0000000000000000000000000000000000000000000000000000000008152600401610a8390613492565b60405180910390fd5b600660008473ffffffffffffffffffffffffffffffffffffffff1673ffffffffffffffffffffffffffffffffffffffff168152602001908152602001600020600083815260200190815260200160002054905092915050565b610b0083838360405180602001604052806000815250611006565b505050565b6000610b0f6108a7565b8210610b50576040517f08c379a0000000000000000000000000000000000000000000000000000000008152600401610b47906136b2565b60405180910390fd5b60088281548110610b8a577f4e487b7100000000000000000000000000000000000000000000000000000000600052603260045260246000fd5b90600052602060002001549050919050565b60606000610bde610bb0434060001c611a9e565b610bb985611a9e565b604051602001610bca929190613282565b604051602081830303815290604052611c4b565b905060118054905081610bf19190613a12565b905060118181548110610c2d577f4e487b7100000000000000000000000000000000000000000000000000000000600052603260045260246000fd5b906000526020600020018054610c4290613966565b80601f0160208091040260200160405190810160405280929190818152602001828054610c6e90613966565b8015610cbb5780601f10610c9057610100808354040283529160200191610cbb565b820191906000526020600020905b815481529060010190602001808311610c9e57829003601f168201915b5050505050915050919050565b6000806002600084815260200190815260200160002060009054906101000a900473ffffffffffffffffffffffffffffffffffffffff169050600073ffffffffffffffffffffffffffffffffffffffff168173ffffffffffffffffffffffffffffffffffffffff161415610d71576040517f08c379a0000000000000000000000000000000000000000000000000000000008152600401610d68906135b2565b60405180910390fd5b80915050919050565b60008073ffffffffffffffffffffffffffffffffffffffff168273ffffffffffffffffffffffffffffffffffffffff161415610deb576040517f08c379a0000000000000000000000000000000000000000000000000000000008152600401610de290613592565b60405180910390fd5b600360008373ffffffffffffffffffffffffffffffffffffffff1673ffffffffffffffffffffffffffffffffffffffff168152602001908152602001600020549050919050565b606060018054610e4190613966565b80601f0160208091040260200160405190810160405280929190818152602001828054610e6d90613966565b8015610eba5780601f10610e8f57610100808354040283529160200191610eba565b820191906000526020600020905b815481529060010190602001808311610e9d57829003601f168201915b5050505050905090565b610ed6610ecf6113b9565b8383611c7e565b5050565b60606000610f1c610eee434060001c611a9e565b610ef785611a9e565b604051602001610f08929190613282565b604051602081830303815290604052611c4b565b9050600f8054905081610f2f9190613a12565b9050600f8181548110610f6b577f4e487b7100000000000000000000000000000000000000000000000000000000600052603260045260246000fd5b906000526020600020018054610f8090613966565b80601f0160208091040260200160405190810160405280929190818152602001828054610fac90613966565b8015610ff95780601f10610fce57610100808354040283529160200191610ff9565b820191906000526020600020905b815481529060010190602001808311610fdc57829003601f168201915b5050505050915050919050565b6110176110116113b9565b83611759565b611056576040517f08c379a000000000000000000000000000000000000000000000000000000000815260040161104d90613692565b60405180910390fd5b61106284848484611deb565b50505050565b606060006110aa61107c434060001c611a9e565b61108585611a9e565b604051602001611096929190613282565b604051602081830303815290604052611c4b565b9050601080549050816110bd9190613a12565b9050601081815481106110f9577f4e487b7100000000000000000000000000000000000000000000000000000000600052603260045260246000fd5b90600052602060002001805461110e90613966565b80601f016020809104026020016040519081016040528092919081815260200182805461113a90613966565b80156111875780601f1061115c57610100808354040283529160200191611187565b820191906000526020600020905b81548152906001019060200180831161116a57829003601f168201915b5050505050915050919050565b606061119f82611e47565b9050919050565b6000600560008473ffffffffffffffffffffffffffffffffffffffff1673ffffffffffffffffffffffffffffffffffffffff16815260200190815260200160002060008373ffffffffffffffffffffffffffffffffffffffff1673ffffffffffffffffffffffffffffffffffffffff16815260200190815260200160002060009054906101000a900460ff16905092915050565b6112d08160405160240161124e9190613432565b6040516020818303038152906040527f41304fac000000000000000000000000000000000000000000000000000000007bffffffffffffffffffffffffffffffffffffffffffffffffffffffff19166020820180517bffffffffffffffffffffffffffffffffffffffffffffffffffffffff8381831617835250505050611f99565b50565b60007f780e9d63000000000000000000000000000000000000000000000000000000007bffffffffffffffffffffffffffffffffffffffffffffffffffffffff1916827bffffffffffffffffffffffffffffffffffffffffffffffffffffffff19161480611346575061134582611fc2565b5b9050919050565b60008073ffffffffffffffffffffffffffffffffffffffff166002600084815260200190815260200160002060009054906101000a900473ffffffffffffffffffffffffffffffffffffffff1673ffffffffffffffffffffffffffffffffffffffff1614159050919050565b600033905090565b816004600083815260200190815260200160002060006101000a81548173ffffffffffffffffffffffffffffffffffffffff021916908373ffffffffffffffffffffffffffffffffffffffff160217905550808273ffffffffffffffffffffffffffffffffffffffff1661143483610cc8565b73ffffffffffffffffffffffffffffffffffffffff167f8c5be1e5ebec7d5bd14f71427d1e84f3dd0314c0f7b2291e5b200ac8c7c3b92560405160405180910390a45050565b600081600001549050919050565b60606000825114156114ab5760405180602001604052806000815250905061160d565b60006040518060600160405280604081526020016141ed60409139905060006003600285516114da919061379b565b6114e491906137f1565b60046114f09190613822565b67ffffffffffffffff81111561152f577f4e487b7100000000000000000000000000000000000000000000000000000000600052604160045260246000fd5b6040519080825280601f01601f1916602001820160405280156115615781602001600182028036833780820191505090505b509050600182016020820185865187015b808210156115cd576003820191508151603f8160121c168501518453600184019350603f81600c1c168501518453600184019350603f8160061c168501518453600184019350603f8116850151845360018401935050611572565b50506003865106600181146115e957600281146115fc57611604565b603d6001830353603d6002830353611604565b603d60018303535b50505080925050505b919050565b61162c8282604051806020016040528060008152506120a4565b5050565b6116398261134d565b611678576040517f08c379a000000000000000000000000000000000000000000000000000000000815260040161166f906135d2565b60405180910390fd5b80600a6000848152602001908152602001600020908051906020019061169f929190612a61565b505050565b6001816000016000828254019250508190555050565b6117548383836040516024016116d293929190613454565b6040516020818303038152906040527fe3849f79000000000000000000000000000000000000000000000000000000007bffffffffffffffffffffffffffffffffffffffffffffffffffffffff19166020820180517bffffffffffffffffffffffffffffffffffffffffffffffffffffffff8381831617835250505050611f99565b505050565b60006117648261134d565b6117a3576040517f08c379a000000000000000000000000000000000000000000000000000000000815260040161179a90613552565b60405180910390fd5b60006117ae83610cc8565b90508073ffffffffffffffffffffffffffffffffffffffff168473ffffffffffffffffffffffffffffffffffffffff16148061181d57508373ffffffffffffffffffffffffffffffffffffffff1661180584610510565b73ffffffffffffffffffffffffffffffffffffffff16145b8061182e575061182d81856111a6565b5b91505092915050565b8273ffffffffffffffffffffffffffffffffffffffff1661185782610cc8565b73ffffffffffffffffffffffffffffffffffffffff16146118ad576040517f08c379a00000000000000000000000000000000000000000000000000000000081526004016118a4906134d2565b60405180910390fd5b600073ffffffffffffffffffffffffffffffffffffffff168273ffffffffffffffffffffffffffffffffffffffff16141561191d576040517f08c379a000000000000000000000000000000000000000000000000000000000815260040161191490613512565b60405180910390fd5b6119288383836120ff565b6119336000826113c1565b6001600360008573ffffffffffffffffffffffffffffffffffffffff1673ffffffffffffffffffffffffffffffffffffffff1681526020019081526020016000206000828254611983919061387c565b925050819055506001600360008473ffffffffffffffffffffffffffffffffffffffff1673ffffffffffffffffffffffffffffffffffffffff16815260200190815260200160002060008282546119da919061379b565b92505081905550816002600083815260200190815260200160002060006101000a81548173ffffffffffffffffffffffffffffffffffffffff021916908373ffffffffffffffffffffffffffffffffffffffff160217905550808273ffffffffffffffffffffffffffffffffffffffff168473ffffffffffffffffffffffffffffffffffffffff167fddf252ad1be2c89b69c2b068fc378daa952ba7f163c4a11628f55a4df523b3ef60405160405180910390a4611a9983838361210f565b505050565b60606000821415611ae6576040518060400160405280600181526020017f30000000000000000000000000000000000000000000000000000000000000008152509050611c46565b600082905060005b60008214611b18578080611b01906139c9565b915050600a82611b1191906137f1565b9150611aee565b60008167ffffffffffffffff811115611b5a577f4e487b7100000000000000000000000000000000000000000000000000000000600052604160045260246000fd5b6040519080825280601f01601f191660200182016040528015611b8c5781602001600182028036833780820191505090505b5090505b60008514611c3f57600182611ba5919061387c565b9150600a85611bb49190613a12565b6030611bc0919061379b565b60f81b818381518110611bfc577f4e487b7100000000000000000000000000000000000000000000000000000000600052603260045260246000fd5b60200101907effffffffffffffffffffffffffffffffffffffffffffffffffffffffffffff1916908160001a905350600a85611c3891906137f1565b9450611b90565b8093505050505b919050565b600081604051602001611c5e919061326b565b6040516020818303038152906040528051906020012060001c9050919050565b8173ffffffffffffffffffffffffffffffffffffffff168373ffffffffffffffffffffffffffffffffffffffff161415611ced576040517f08c379a0000000000000000000000000000000000000000000000000000000008152600401611ce490613532565b60405180910390fd5b80600560008573ffffffffffffffffffffffffffffffffffffffff1673ffffffffffffffffffffffffffffffffffffffff16815260200190815260200160002060008473ffffffffffffffffffffffffffffffffffffffff1673ffffffffffffffffffffffffffffffffffffffff16815260200190815260200160002060006101000a81548160ff0219169083151502179055508173ffffffffffffffffffffffffffffffffffffffff168373ffffffffffffffffffffffffffffffffffffffff167f17307eab39ab6107e8899845ad3d59bd9653f200f220920489ca2b5937696c3183604051611dde9190613417565b60405180910390a3505050565b611df6848484611837565b611e0284848484612114565b611e41576040517f08c379a0000000000000000000000000000000000000000000000000000000008152600401611e38906134b2565b60405180910390fd5b50505050565b6060611e528261134d565b611e91576040517f08c379a0000000000000000000000000000000000000000000000000000000008152600401611e8890613612565b60405180910390fd5b6000600a60008481526020019081526020016000208054611eb190613966565b80601f0160208091040260200160405190810160405280929190818152602001828054611edd90613966565b8015611f2a5780601f10611eff57610100808354040283529160200191611f2a565b820191906000526020600020905b815481529060010190602001808311611f0d57829003601f168201915b505050505090506000611f3b6122ab565b9050600081511415611f51578192505050611f94565b600082511115611f86578082604051602001611f6e929190613282565b60405160208183030381529060405292505050611f94565b611f8f846122c2565b925050505b919050565b60008151905060006a636f6e736f6c652e6c6f679050602083016000808483855afa5050505050565b60007f80ac58cd000000000000000000000000000000000000000000000000000000007bffffffffffffffffffffffffffffffffffffffffffffffffffffffff1916827bffffffffffffffffffffffffffffffffffffffffffffffffffffffff1916148061208d57507f5b5e139f000000000000000000000000000000000000000000000000000000007bffffffffffffffffffffffffffffffffffffffffffffffffffffffff1916827bffffffffffffffffffffffffffffffffffffffffffffffffffffffff1916145b8061209d575061209c82612369565b5b9050919050565b6120ae83836123d3565b6120bb6000848484612114565b6120fa576040517f08c379a00000000000000000000000000000000000000000000000000000000081526004016120f1906134b2565b60405180910390fd5b505050565b61210a8383836125ad565b505050565b505050565b60006121358473ffffffffffffffffffffffffffffffffffffffff166126c1565b1561229e578373ffffffffffffffffffffffffffffffffffffffff1663150b7a0261215e6113b9565b8786866040518563ffffffff1660e01b815260040161218094939291906133a2565b602060405180830381600087803b15801561219a57600080fd5b505af19250505080156121cb57506040513d601f19601f820116820180604052508101906121c89190612da5565b60015b61224e573d80600081146121fb576040519150601f19603f3d011682016040523d82523d6000602084013e612200565b606091505b50600081511415612246576040517f08c379a000000000000000000000000000000000000000000000000000000000815260040161223d906134b2565b60405180910390fd5b805181602001fd5b63150b7a0260e01b7bffffffffffffffffffffffffffffffffffffffffffffffffffffffff1916817bffffffffffffffffffffffffffffffffffffffffffffffffffffffff1916149150506122a3565b600190505b949350505050565b606060405180602001604052806000815250905090565b60606122cd8261134d565b61230c576040517f08c379a000000000000000000000000000000000000000000000000000000000815260040161230390613652565b60405180910390fd5b60006123166122ab565b905060008151116123365760405180602001604052806000815250612361565b8061234084611a9e565b604051602001612351929190613282565b6040516020818303038152906040525b915050919050565b60007f01ffc9a7000000000000000000000000000000000000000000000000000000007bffffffffffffffffffffffffffffffffffffffffffffffffffffffff1916827bffffffffffffffffffffffffffffffffffffffffffffffffffffffff1916149050919050565b600073ffffffffffffffffffffffffffffffffffffffff168273ffffffffffffffffffffffffffffffffffffffff161415612443576040517f08c379a000000000000000000000000000000000000000000000000000000000815260040161243a906135f2565b60405180910390fd5b61244c8161134d565b1561248c576040517f08c379a0000000000000000000000000000000000000000000000000000000008152600401612483906134f2565b60405180910390fd5b612498600083836120ff565b6001600360008473ffffffffffffffffffffffffffffffffffffffff1673ffffffffffffffffffffffffffffffffffffffff16815260200190815260200160002060008282546124e8919061379b565b92505081905550816002600083815260200190815260200160002060006101000a81548173ffffffffffffffffffffffffffffffffffffffff021916908373ffffffffffffffffffffffffffffffffffffffff160217905550808273ffffffffffffffffffffffffffffffffffffffff16600073ffffffffffffffffffffffffffffffffffffffff167fddf252ad1be2c89b69c2b068fc378daa952ba7f163c4a11628f55a4df523b3ef60405160405180910390a46125a96000838361210f565b5050565b6125b88383836126e4565b600073ffffffffffffffffffffffffffffffffffffffff168373ffffffffffffffffffffffffffffffffffffffff1614156125fb576125f6816126e9565b61263a565b8173ffffffffffffffffffffffffffffffffffffffff168373ffffffffffffffffffffffffffffffffffffffff1614612639576126388382612732565b5b5b600073ffffffffffffffffffffffffffffffffffffffff168273ffffffffffffffffffffffffffffffffffffffff16141561267d576126788161289f565b6126bc565b8273ffffffffffffffffffffffffffffffffffffffff168273ffffffffffffffffffffffffffffffffffffffff16146126bb576126ba82826129e2565b5b5b505050565b6000808273ffffffffffffffffffffffffffffffffffffffff163b119050919050565b505050565b6008805490506009600083815260200190815260200160002081905550600881908060018154018082558091505060019003906000526020600020016000909190919091505550565b6000600161273f84610d7a565b612749919061387c565b905060006007600084815260200190815260200160002054905081811461282e576000600660008673ffffffffffffffffffffffffffffffffffffffff1673ffffffffffffffffffffffffffffffffffffffff168152602001908152602001600020600084815260200190815260200160002054905080600660008773ffffffffffffffffffffffffffffffffffffffff1673ffffffffffffffffffffffffffffffffffffffff168152602001908152602001600020600084815260200190815260200160002081905550816007600083815260200190815260200160002081905550505b6007600084815260200190815260200160002060009055600660008573ffffffffffffffffffffffffffffffffffffffff1673ffffffffffffffffffffffffffffffffffffffff16815260200190815260200160002060008381526020019081526020016000206000905550505050565b600060016008805490506128b3919061387c565b9050600060096000848152602001908152602001600020549050600060088381548110612909577f4e487b7100000000000000000000000000000000000000000000000000000000600052603260045260246000fd5b906000526020600020015490508060088381548110612951577f4e487b7100000000000000000000000000000000000000000000000000000000600052603260045260246000fd5b9060005260206000200181905550816009600083815260200190815260200160002081905550600960008581526020019081526020016000206000905560088054806129c6577f4e487b7100000000000000000000000000000000000000000000000000000000600052603160045260246000fd5b6001900381819060005260206000200160009055905550505050565b60006129ed83610d7a565b905081600660008573ffffffffffffffffffffffffffffffffffffffff1673ffffffffffffffffffffffffffffffffffffffff168152602001908152602001600020600083815260200190815260200160002081905550806007600084815260200190815260200160002081905550505050565b828054612a6d90613966565b90600052602060002090601f016020900481019282612a8f5760008555612ad6565b82601f10612aa857805160ff1916838001178555612ad6565b82800160010185558215612ad6579182015b82811115612ad5578251825591602001919060010190612aba565b5b509050612ae39190612ae7565b5090565b5b80821115612b00576000816000905550600101612ae8565b5090565b6000612b17612b1284613712565b6136ed565b905082815260208101848484011115612b2f57600080fd5b612b3a848285613924565b509392505050565b600081359050612b518161416b565b92915050565b600081359050612b6681614182565b92915050565b600081359050612b7b81614199565b92915050565b600081519050612b9081614199565b92915050565b600082601f830112612ba757600080fd5b8135612bb7848260208601612b04565b91505092915050565b600081359050612bcf816141b0565b92915050565b600060208284031215612be757600080fd5b6000612bf584828501612b42565b91505092915050565b60008060408385031215612c1157600080fd5b6000612c1f85828601612b42565b9250506020612c3085828601612b42565b9150509250929050565b600080600060608486031215612c4f57600080fd5b6000612c5d86828701612b42565b9350506020612c6e86828701612b42565b9250506040612c7f86828701612bc0565b9150509250925092565b60008060008060808587031215612c9f57600080fd5b6000612cad87828801612b42565b9450506020612cbe87828801612b42565b9350506040612ccf87828801612bc0565b925050606085013567ffffffffffffffff811115612cec57600080fd5b612cf887828801612b96565b91505092959194509250565b60008060408385031215612d1757600080fd5b6000612d2585828601612b42565b9250506020612d3685828601612b57565b9150509250929050565b60008060408385031215612d5357600080fd5b6000612d6185828601612b42565b9250506020612d7285828601612bc0565b9150509250929050565b600060208284031215612d8e57600080fd5b6000612d9c84828501612b6c565b91505092915050565b600060208284031215612db757600080fd5b6000612dc584828501612b81565b91505092915050565b600060208284031215612de057600080fd5b6000612dee84828501612bc0565b91505092915050565b612e00816138b0565b82525050565b612e0f816138c2565b82525050565b6000612e2082613758565b612e2a818561376e565b9350612e3a818560208601613933565b612e4381613aff565b840191505092915050565b6000612e5982613763565b612e63818561377f565b9350612e73818560208601613933565b612e7c81613aff565b840191505092915050565b6000612e9282613763565b612e9c8185613790565b9350612eac818560208601613933565b80840191505092915050565b60008154612ec581613966565b612ecf8186613790565b94506001821660008114612eea5760018114612efb57612f2e565b60ff19831686528186019350612f2e565b612f0485613743565b60005b83811015612f2657815481890152600182019150602081019050612f07565b838801955050505b50505092915050565b6000612f44602b8361377f565b9150612f4f82613b10565b604082019050919050565b6000612f6760328361377f565b9150612f7282613b5f565b604082019050919050565b6000612f8a60258361377f565b9150612f9582613bae565b604082019050919050565b6000612fad601c8361377f565b9150612fb882613bfd565b602082019050919050565b6000612fd060248361377f565b9150612fdb82613c26565b604082019050919050565b6000612ff360198361377f565b9150612ffe82613c75565b602082019050919050565b6000613016606383613790565b915061302182613c9e565b606382019050919050565b6000613039602c8361377f565b915061304482613d39565b604082019050919050565b600061305c600d83613790565b915061306782613d88565b600d82019050919050565b600061307f60388361377f565b915061308a82613db1565b604082019050919050565b60006130a2602a8361377f565b91506130ad82613e00565b604082019050919050565b60006130c560298361377f565b91506130d082613e4f565b604082019050919050565b60006130e8602e8361377f565b91506130f382613e9e565b604082019050919050565b600061310b600283613790565b915061311682613eed565b600282019050919050565b600061312e60208361377f565b915061313982613f16565b602082019050919050565b600061315160318361377f565b915061315c82613f3f565b604082019050919050565b6000613174602c8361377f565b915061317f82613f8e565b604082019050919050565b6000613197602f8361377f565b91506131a282613fdd565b604082019050919050565b60006131ba600a83613790565b91506131c58261402c565b600a82019050919050565b60006131dd60218361377f565b91506131e882614055565b604082019050919050565b6000613200601d83613790565b915061320b826140a4565b601d82019050919050565b600061322360318361377f565b915061322e826140cd565b604082019050919050565b6000613246602c8361377f565b91506132518261411c565b604082019050919050565b6132658161391a565b82525050565b60006132778284612e87565b915081905092915050565b600061328e8285612e87565b915061329a8284612e87565b91508190509392505050565b60006132b28286612e87565b91506132be8285612e87565b91506132ca8284612e87565b9150819050949350505050565b60006132e38287612eb8565b91506132ef8286612e87565b91506132fb8285612eb8565b91506133078284612e87565b91506133128261304f565b915081905095945050505050565b600061332b826131ad565b91506133378285612e87565b915061334282613009565b915061334e8284612e87565b9150613359826130fe565b91508190509392505050565b6000613370826131f3565b915061337c8284612e87565b915081905092915050565b600060208201905061339c6000830184612df7565b92915050565b60006080820190506133b76000830187612df7565b6133c46020830186612df7565b6133d1604083018561325c565b81810360608301526133e38184612e15565b905095945050505050565b60006040820190506134036000830185612df7565b613410602083018461325c565b9392505050565b600060208201905061342c6000830184612e06565b92915050565b6000602082019050818103600083015261344c8184612e4e565b905092915050565b6000606082019050818103600083015261346e8186612e4e565b905061347d602083018561325c565b61348a6040830184612df7565b949350505050565b600060208201905081810360008301526134ab81612f37565b9050919050565b600060208201905081810360008301526134cb81612f5a565b9050919050565b600060208201905081810360008301526134eb81612f7d565b9050919050565b6000602082019050818103600083015261350b81612fa0565b9050919050565b6000602082019050818103600083015261352b81612fc3565b9050919050565b6000602082019050818103600083015261354b81612fe6565b9050919050565b6000602082019050818103600083015261356b8161302c565b9050919050565b6000602082019050818103600083015261358b81613072565b9050919050565b600060208201905081810360008301526135ab81613095565b9050919050565b600060208201905081810360008301526135cb816130b8565b9050919050565b600060208201905081810360008301526135eb816130db565b9050919050565b6000602082019050818103600083015261360b81613121565b9050919050565b6000602082019050818103600083015261362b81613144565b9050919050565b6000602082019050818103600083015261364b81613167565b9050919050565b6000602082019050818103600083015261366b8161318a565b9050919050565b6000602082019050818103600083015261368b816131d0565b9050919050565b600060208201905081810360008301526136ab81613216565b9050919050565b600060208201905081810360008301526136cb81613239565b9050919050565b60006020820190506136e7600083018461325c565b92915050565b60006136f7613708565b90506137038282613998565b919050565b6000604051905090565b600067ffffffffffffffff82111561372d5761372c613ad0565b5b61373682613aff565b9050602081019050919050565b60008190508160005260206000209050919050565b600081519050919050565b600081519050919050565b600082825260208201905092915050565b600082825260208201905092915050565b600081905092915050565b60006137a68261391a565b91506137b18361391a565b9250827fffffffffffffffffffffffffffffffffffffffffffffffffffffffffffffffff038211156137e6576137e5613a43565b5b828201905092915050565b60006137fc8261391a565b91506138078361391a565b92508261381757613816613a72565b5b828204905092915050565b600061382d8261391a565b91506138388361391a565b9250817fffffffffffffffffffffffffffffffffffffffffffffffffffffffffffffffff048311821515161561387157613870613a43565b5b828202905092915050565b60006138878261391a565b91506138928361391a565b9250828210156138a5576138a4613a43565b5b828203905092915050565b60006138bb826138fa565b9050919050565b60008115159050919050565b60007fffffffff0000000000000000000000000000000000000000000000000000000082169050919050565b600073ffffffffffffffffffffffffffffffffffffffff82169050919050565b6000819050919050565b82818337600083830152505050565b60005b83811015613951578082015181840152602081019050613936565b83811115613960576000848401525b50505050565b6000600282049050600182168061397e57607f821691505b6020821081141561399257613991613aa1565b5b50919050565b6139a182613aff565b810181811067ffffffffffffffff821117156139c0576139bf613ad0565b5b80604052505050565b60006139d48261391a565b91507fffffffffffffffffffffffffffffffffffffffffffffffffffffffffffffffff821415613a0757613a06613a43565b5b600182019050919050565b6000613a1d8261391a565b9150613a288361391a565b925082613a3857613a37613a72565b5b828206905092915050565b7f4e487b7100000000000000000000000000000000000000000000000000000000600052601160045260246000fd5b7f4e487b7100000000000000000000000000000000000000000000000000000000600052601260045260246000fd5b7f4e487b7100000000000000000000000000000000000000000000000000000000600052602260045260246000fd5b7f4e487b7100000000000000000000000000000000000000000000000000000000600052604160045260246000fd5b6000601f19601f8301169050919050565b7f455243373231456e756d657261626c653a206f776e657220696e646578206f7560008201527f74206f6620626f756e6473000000000000000000000000000000000000000000602082015250565b7f4552433732313a207472616e7366657220746f206e6f6e20455243373231526560008201527f63656976657220696d706c656d656e7465720000000000000000000000000000602082015250565b7f4552433732313a207472616e736665722066726f6d20696e636f72726563742060008201527f6f776e6572000000000000000000000000000000000000000000000000000000602082015250565b7f4552433732313a20746f6b656e20616c7265616479206d696e74656400000000600082015250565b7f4552433732313a207472616e7366657220746f20746865207a65726f2061646460008201527f7265737300000000000000000000000000000000000000000000000000000000602082015250565b7f4552433732313a20617070726f766520746f2063616c6c657200000000000000600082015250565b7f222c20226465736372697074696f6e223a20224120686967686c79206163636c60008201527f61696d656420636f6c6c656374696f6e206f6620737175617265732e222c202260208201527f696d616765223a2022646174613a696d6167652f7376672b786d6c3b6261736560408201527f36342c0000000000000000000000000000000000000000000000000000000000606082015250565b7f4552433732313a206f70657261746f7220717565727920666f72206e6f6e657860008201527f697374656e7420746f6b656e0000000000000000000000000000000000000000602082015250565b7f3c2f746578743e3c2f7376673e00000000000000000000000000000000000000600082015250565b7f4552433732313a20617070726f76652063616c6c6572206973206e6f74206f7760008201527f6e6572206e6f7220617070726f76656420666f7220616c6c0000000000000000602082015250565b7f4552433732313a2062616c616e636520717565727920666f7220746865207a6560008201527f726f206164647265737300000000000000000000000000000000000000000000602082015250565b7f4552433732313a206f776e657220717565727920666f72206e6f6e657869737460008201527f656e7420746f6b656e0000000000000000000000000000000000000000000000602082015250565b7f45524337323155524953746f726167653a2055524920736574206f66206e6f6e60008201527f6578697374656e7420746f6b656e000000000000000000000000000000000000602082015250565b7f227d000000000000000000000000000000000000000000000000000000000000600082015250565b7f4552433732313a206d696e7420746f20746865207a65726f2061646472657373600082015250565b7f45524337323155524953746f726167653a2055524920717565727920666f722060008201527f6e6f6e6578697374656e7420746f6b656e000000000000000000000000000000602082015250565b7f4552433732313a20617070726f76656420717565727920666f72206e6f6e657860008201527f697374656e7420746f6b656e0000000000000000000000000000000000000000602082015250565b7f4552433732314d657461646174613a2055524920717565727920666f72206e6f60008201527f6e6578697374656e7420746f6b656e0000000000000000000000000000000000602082015250565b7f7b226e616d65223a202200000000000000000000000000000000000000000000600082015250565b7f4552433732313a20617070726f76616c20746f2063757272656e74206f776e6560008201527f7200000000000000000000000000000000000000000000000000000000000000602082015250565b7f646174613a6170706c69636174696f6e2f6a736f6e3b6261736536342c000000600082015250565b7f4552433732313a207472616e736665722063616c6c6572206973206e6f74206f60008201527f776e6572206e6f7220617070726f766564000000000000000000000000000000602082015250565b7f455243373231456e756d657261626c653a20676c6f62616c20696e646578206f60008201527f7574206f6620626f756e64730000000000000000000000000000000000000000602082015250565b614174816138b0565b811461417f57600080fd5b50565b61418b816138c2565b811461419657600080fd5b50565b6141a2816138ce565b81146141ad57600080fd5b50565b6141b98161391a565b81146141c457600080fd5b5056fe416e204e465420772f20494420257320686173206265656e206d696e74656420746f2025734142434445464748494a4b4c4d4e4f505152535455565758595a6162636465666768696a6b6c6d6e6f707172737475767778797a303132333435363738392b2fa2646970667358221220d2e2ef6d621113e8060a224a14522737d0ab43d7561d74de3624368f25d7303664736f6c634300080200333c73766720786d6c6e733d27687474703a2f2f7777772e77332e6f72672f323030302f73766727207072657365727665417370656374526174696f3d27784d696e594d696e206d656574272076696577426f783d273020302033353020333530273e3c7374796c653e2e62617365207b2066696c6c3a2077686974653b20666f6e742d66616d696c793a2073657269663b20666f6e742d73697a653a20323470783b207d3c2f7374796c653e3c726563742077696474683d273130302527206865696768743d2731303025272066696c6c3d27272f3e3c7465787420783d273530252720793d273530252720636c6173733d27626173652720646f6d696e616e742d626173656c696e653d276d6964646c652720746578742d616e63686f723d276d6964646c65273e",
  "linkReferences": {},
  "deployedLinkReferences": {}
}